:03000000021531B5
:0C153100787FE4F6D8FD7581070215787C
:101ADC0000FE8242A29E8A82868AB26202FE0000C8
:101AEC00007F40407F40404040407F40407F0000AE
:101AFC00808080BFA5A5A53FA5A5A5BF808080003F
:101B0C007F24243F24247F007F24243F24247F002F
:10000300440014000000005403AE00BD001800D5E6
:1000130000D9007800E900ED009800FD00F95000D8
:1000230004080009000A000B000C000D000E000F6D
:100033000052062800000004000500060007000C1B
:10004300000D000E000F44000000003A98612A00E2
:10005300180204020503FD0000020503FD03FF036C
:10006300F90000000000000000000000000201038E
:10007300F80000020303F803FD03F700000000008B
:100083000000000201020103F60000020103F6036F
:10009300FD03F5000000000000000000000209025B
:1000A30009020903F90000020203F603F903F90048
:1000B300000000000000000204020503FD0000022E
:1000C3000503FD03FF03F900000000000000000228
:1000D30001020103F80000020303F803FD03F70024
:1000E300000000000000000000020103F60000020F
:1000F3000905ED03FD03FE020A020B03FD000000E8
:1001030000020902050204020403F903F703F800DD
:10011300000000000000000209020A03FF000002C1
:100123000A03FF040103FE000000000000000002B8
:1001330003020303FD0000020503FD03FF03FF00A9
:10014300000000000000000000000002040205039C
:10015300FD02050209020A020A03FD00000203036D
:10016300F700000000040003FF03FE03FD03FF008C
:100173000000000000000000000000626C01420269
:100183000B020B020B00DD00DF0000020D0000027A
:1001930003000000DD000000D700000201000002A0
:1001A30004020500D902040203020B00E100E2008D
:1001B3000000E000E1000000DF000000DD00DE02DF
:1001C3000500000209000000D70000000000D50070
:1001D30000020400D9000000D90204000000D70285
:1001E30001020D020E020C020D0000020B00DE00E4
:1001F300DD03F90000020D00E000E0020B020B003A
:10020300D702040209000000D800DD020A00000042
:10021300E100E0020C020B0000020B0213021302C6
:10022300130000000000E100E000E0020B00DF002B
:100233000000D7000000D8020900D800DD0000004C
:10024300DE0000020B0000020A000000DD000000D7
:1002530000000000E1000000E000E000DF0000001B
:10026300DF000000D700D80209000000D800DD003D
:10027300DE000000E100E000E0020B000000DF0010
:100283000000DD0000020902090000000000E10097
:10029300E000E000DF0000020B00D700D800000000
:1002A300DD000000D800DD00DE0000000000DF00FC
:1002B30000000000DE000002090000000000000052
:1002C300DD00DD000000DD000000DD00DE000000D9
:1002D300DF000000DD000000D803F7000000DD02AE
:1002E30009000000DD000000DD00DE00DF0000008B
:1002F30000000000DD00DD0000020900DD00DE007B
:100303000000DF00DD000002040203000000DF0044
:10031300DF000000DF000000DD00DF000000E1007F
:1003230000000002030000020902030000020100B2
:10033300000204020502050204020300DF00E000DC
:100343000000E2000000E0020D000000DF00DD021B
:100353000A0205000000DD0000000000D7000003D2
:10036300F502040205000000D902040201020B0099
:10037300E100E2000000E000E1000000DF00000017
:10038300DD00DE0205000000DF00DD000000D70015
:10039300D700D8020C0000020C0204000000D902AE
:1003A3000E020E00E2020D00000400020B0209021D
:1003B3000402030000000000DF00DD000002030070
:1003C3000000D700D800E0000000E003F8000000C0
:1003D300D9020C000000E0020C00DF00DE00000088
:1003E300DD0201000000D501FF0000626603C200C8
:1003F3000000000000000000000000020B020D02DC
:100403000E00000000020D020E00000000020D02AB
:100413000E0213020D020E020B0000020B020D026C
:100423000E00000000020D020E00000000020D028B
:100433000E021502130214020E0000020B020D023B
:100443000E00000000020D020E00000000020D026B
:100453000E0213020D020E020B020D0209020A0321
:10046300FF040704020409021400E900E80213026E
:100473001404020000000004020402040200E2006B
:10048300E700E800E904020402020E020D020D0275
:100493000E04020402040200E200E700E800E9049B
:1004A300020402020E0216021602150402040204DA
:1004B3000200E200E700E800E904020402020E027F
:1004C3000D020D020E04020402040200E200E70022
:1004D300E800E9040C0218020E020D020E040200E9
:1004E3000000000000020E020E00E102D5020E021F
:1004F3000D020B020B00E104C70000000000000026
:10050300000000020E020E020D020E020F04070489
:1005130003020E00E300E2040100000000000002F9
:100523000E020E020D020D00E202D5020B020B00B9
:10053300E104C70000020D020D020E0000020D02CD
:100543000D020E000000E200E304070408020E029D
:100553000B020B020D020D020E000002150408002F
:1005630000020E0000020E020E0215040800000035
:10057300000000021402140213021400E702D6045E
:1005830001020D020D020E020E020B020B020D02FE
:100593000E020E020E02150409000000E300E7023A
:1005A3001400E702DC02150402000000E100E1048C
:1005B3000202DD00E902140213020E020D02D6024A
:1005C300D60213040800000000020E00E202D60067
:1005D300E100E1020E021500000213021400E7021B
:1005E300DC00E904090000020D020E021300000200
:1005F3000D020E0215000000E900E80213020F02CB
:100603000E020D020D040200000000020E020D0294
:100613000B020A020B020902030204020302040092
:100623000003F80000000003F80000000003F900D5
:1006330000000000D800D9020400D8020502040318
:10064300FD000000000205020E020D020B020A0269
:050653000B0209020387
:071BC800121C217F057E00C5
:101BCF00E4FDFCC3ED9FEE6480F8EC648098501543
:101BDF00E4FBFA0BBB00010AEB646E4A70F50DBD16
:051BEF0000010C80DE86
:011BF40022CE
:101C4B00E4FDFCC3ED9FEE6480F8EC6480985015C6
:101C5B00E4FBFA0BBB00010AEB64014A70F50DBD06
:051C6B0000010C80DE09
:011C70002251
:0C1CC00030A00280FB7F587E02121BCF78
:011CCC0022F5
:101C2100C280C282E4FDC284EF30E704D283800225
:101C3100C283D284EF7801088005C333CE33CED876
:091C4100F9FF0DEDB408DFD280BB
:011C4A002277
:0E1B5B00E0FBA3E0FAA3E0F9120C21FF7E00EC
:101B6900C280D282E4FDC284EF30E704D2838002CE
:101B7900C283D284EF7801088005C333CE33CED82F
:091B8900F9FF0DEDB408DFD28074
:011B92002230
:10182500C2817F647E00121BCFD281121BCF7FE263
:10183500121BC87F2C121C217F327E00121BCF7F0A
:101845002E121C217F327E00121BCF7F2F121BC848
:101855007F24121C217F817E00121C217F217E00A6
:10186500121C217FA27E00121C217FC87E00121C43
:10187500217FA07E00121C217F407E00121C217F4B
:06188500AF7E00021C21F1
:0D1B1C00E9FFE02FFFE433FEA3E0FD7C00B5
:101B2900AB05AA04EB1B70011AEF24AFFFE43EFEDC
:101B3900121C21EAC4F854F0C8EBC4540F48540FDE
:101B49002410FFE433FE121C217E00EB540FFF0228
:021B59001C214D
:101BF500E4FCEC24B0FFE433FE121C217F107E00D0
:101C0500121C21E4FFFE121C21E4FBE4FFFE121B63
:0B1C1500690BEBB484F50CECB409D7AC
:011C200022A1
:0B17420090067EEBF0A3EAF0A3E9F0B4
:10174D00E4900683F0A3F0900683E0FEA3E0FFC3D0
:10175D009408EE94005052EF2401FFE43EFE7D010B
:10176D007C00121B29E4900681F0A3F090067E12F6
:10177D001B5B90067FE475F001120CAF900682E0C2
:10178D0004F07006900681E004F0C3900682E094A8
:10179D0080900681E0940040D3900684E004F070C0
:0917AD00A6900683E004F0809E82
:0117B6002210
:1016420090066CEFF0A3EDF0A3EBF0A3EAF0A3E9B0
:01165200F0A7
:10165300E4900673F0A3F0900673E0FEA3E0FFC3EB
:101663009402EE9400505790066CE0FD7C00EF2D41
:10167300FFEC3EFEA3E0FD121B29E4900671F0A3EC
:10168300F090066E121B5B90066FE475F001120C6E
:10169300AF900672E004F07006900671E004F0C3A8
:1016A300900672E09410900671E0940040D3900687
:0E16B30074E004F070A1900673E004F08099DA
:0116C1002206
:1016C200900675EFF0A3EDF0A3EBF0A3EAF0A3E927
:0116D200F027
:1016D300E490067CF0A3F090067CE0FEA3E0FFC359
:1016E3009402EE94005057900675E0FD7C00EF2DB8
:1016F300FFEC3EFEA3E0FD121B29E490067AF0A363
:10170300F0900677121B5B900678E475F001120CDB
:10171300AF90067BE004F0700690067AE004F0C315
:1017230090067BE0940890067AE0940040D39006FC
:0E1733007DE004F070A190067CE004F0809947
:011741002285
:0B198C009006A3EBF0A3EAF0A3E9F043
:101997007E007C00121B29E4A3F0A3F09006A3129B
:1019A7001B5B9006A4E475F001120CAF9006A7E04C
:1019B70004F070069006A6E004F0C39006A7E09432
:0919C700069006A6E0940040D34E
:0119D00022F4
:0F1A1500A3E0FDA3A3E4FFFEE47810FC120D8113
:051A24009006A8EFF0A0
:101A2900E4F9C2A27F0A7E00121C4B9006A8E0FFCF
:101A390030E704D2A08002C2A0EF25E09006A8F00A
:0E1A4900D2A27F0A7E00121C4B09E9B408D419
:011A5700226C
:101C9200E4FFFED2A1C2A2EF25E0FF30A1030F8034
:081CA20000D2A20EEEB408EB23
:011CAA002217
:06193800900685120D94DB
:10193E00C2A37F03121A24900685121A15900685EB
:10194E00A3A3E0FEA3E4FFE4FD7808121A2090069C
:10195E0085E0FCA3E0FDA3E0FEA3E0FF121A24E461
:10196E00F9900689121B1C121C92AB077E00121BEB
:0D197E00690CECB410F109E9B402E6D2A343
:01198B002239
:06188B0090068B120D9483
:10189100C2A37F03121A2490068B121A1590068B8D
:1018A100A3A3E0FEA3E4FFE4FDFC7808120D81127E
:1018B1001A2490068BE0FCA3E0FDA3E0FEA3E0FF69
:1018C100121A24E4F990068F121B1C121C92AB070A
:1018D1007E00121B690CECB408F109E9B402E6D2EE
:0118E100A363
:0118E20022E3
:0618E300900691120D9425
:1018E900C2A37F03121A24900691121A1590069129
:1018F900A3A3E0FEA3E4FFE4FDFC7808120D811226
:101909001A24900691E0FCA3E0FDA3E0FEA3E0FF0A
:10191900121A24900695E0FF7E00121B24121C92D5
:0E192900AB077E00121B690CECB405F1D2A3D3
:01193700228D
:100EF400900697EFF0A3EDF0A3EBF0A3EAF0A3E9DB
:010F0400F0FC
:100F0500E4A3F0900699E0FBA3E0FAA3E0F9A3E0DF
:100F1500F582758300120C3AFFD394005003021139
:100F250069EF94B04079EFD394F7507390069CE045
:100F35002401FFE433FE8F828E83120C3AC394A101
:100F4500405D90069CE0F582758300120C3A2450B2
:100F5500FFE434FFFE7C007D5E120C67E4FD90002B
:100F650014120D94900014E0F8A3E0F9A3E0FAA39D
:100F7500E0FBC000C001C002C00390069CE0240154
:100F8500FFE433FE900699E0FBA3E0FAA3E0F98FB6
:100F9500828E83120C3A24ADFFE4340202103E9097
:100FA5000699E0FBA3E0FAA3E0F9A3E0F5827583D7
:100FB50000120C3AFFC394A150030210ABEFD39477
:100FC500A340030210AB90069CE02401FFE433FE2E
:100FD5008F828E83120C3AC394A150030210AB90FA
:100FE500069CE0F582758300120C3A245FFFE43419
:100FF500FFFE7C007D5E120C67E4FD900014120D6F
:1010050094900014E0F8A3E0F9A3E0FAA3E0FBC094
:1010150000C001C002C00390069CE02401FFE43338
:10102500FE900699E0FBA3E0FAA3E0F98F828E8398
:10103500120C3A245FFFE434FFFEE4FCFDD003D03C
:1010450002D001D000EB2FFFEA3EFEED39FDEC3872
:10105500FC900014120D94900014E0FCA3E0FDA395
:10106500E0FEA3E0FFE47B20FAF9F8120CFD900006
:1010750014120D94900014E0FCA3E0FDA3E0FEA380
:10108500E0FF900697E0900689F0900698E09006BC
:101095008AF012193890069CE02402F0900698E038
:1010A5002410F0020F08900699E0FBA3E0FAA3E0F4
:1010B500F9A3E0F582758300120C3AFFC394205022
:1010C50003021160EFD3947E4003021160900699EC
:1010D500A3A3A3E0F582758300120C3A24E0FFE494
:1010E50034FFFEE4FCFD900014120D94900014E012
:1010F500FCA3E0FDA3E0FEA3E0FFE47B10FAF9F812
:10110500120CFD900014120D94900014E0FCA3E065
:10111500FDA3E0FEA3E02480FFEE34CFFEED340313
:10112500FDE43CFC900014120D94900014E0FCA327
:10113500E0FDA3E0FEA3E0FF900697E090068FF0A8
:10114500900698E0900690F012188B90069CE004AB
:10115500F0900698E02408F0020F0890069CE00441
:04116500F0020F087D
:011169002263
:1012D30090069DEFF0A3EDF0A3EBF0A3EAF0A3E9F2
:0112E300F01A
:1012E400E4A3F090069FE0FBA3E0FAA3E0F9A3E0F7
:1012F400F582758300120C3AFFD394005003021355
:10130400ADEF942050030213A4EFD3947E40030264
:1013140013A490069FA3A3A3E0F582758300120C87
:101324003A24E0FFE434FFFEE4FCFD900014120DC7
:1013340094900014E0FCA3E0FDA3E0FEA3E0FFE42E
:101344007B08FAF9F8120CFD900014120D94900029
:1013540014E0FCA3E0FDA3E0FEA3E024C0FFEE3410
:10136400BFFEED3403FDE43CFC900014120D949098
:101374000014E0FCA3E0FDA3E0FEA3E0FF90069DC3
:10138400E0900695F090069EE0900696F01218E321
:101394009006A2E004F090069EE02406F00212E714
:0913A4009006A2E004F00212E739
:0113AD00221D
:101A58008037E4FFFEFDFC900668E0F8A3E0F9A3F8
:101A6800E0FAA3E0FBD3120D704026000090066850
:101A7800E0FCA3E0FDA3E0FEA3E024FFFFEE34FFBB
:101A8800FEED34FFFDEC34FFFC900668120D9480E7
:021A9800C12269
:0813AE0090065CEEF0A3EFF0E5
:1013B600C374039DFFE49CFE7C007D03120C6790C2
:1013C6000666EEF0A3EFF0C3900667E09409900678
:1013D60066E0648094804003021477900660E0FC27
:1013E600A3E0FDA3E0FEA3E0FF121A5890065DE01D
:1013F60024FFFF90065CE034FFFEEFC4F8540FC8EC
:1014060068FFEEC454F048900664F0A3EFF090062F
:101416005DE0C4F8540FC868FF90065CE0C454F061
:1014260048FE900664E0FCA3E0FDC39FEE6480F8EE
:10143600EC6480985027900667E02401FF900666CA
:10144600E03400FE121B29E4FFFE121B69900665BC
:10145600E004F070B9900664E004F080B19006678D
:10146600E004F060030213CD900666E004F0021378
:01147600CDA8
:011477002252
:0814780090065CEEF0A3EFF01A
:10148000AE04AF057C007D03120C67EF24FFFFEE76
:1014900034FF900660F0A3EFF0D3900661E0940073
:1014A000900660E064809480500302153090065DE1
:1014B000E024FFFF90065CE034FFFEEFC4F8540F19
:1014C000C868FFEEC454F04890065EF0A3EFF090B9
:1014D000065DE0C4F8540FC868FF90065CE0C45491
:1014E000F048FE90065EE0FCA3E0FDC39FEE648042
:1014F000F8EC6480985028A3E0FEA3E0FFC37409D1
:101500009FFFE49EFE121B297FFF7E00121B699045
:10151000065FE004F070B890065EE004F080B090E2
:101520000661E024FFF0900660E034FFF0021499B9
:011530002298
:101C7100C2A6E4FDC2A4EF1392A5D2A4EEC313FE43
:101C8100EF13FF0DEDB40CECD2A600000000000034
:011C91002230
:1017B700E4FF7E0720A766C2A8C2A6FDEE1392A586
:1017C700C2A4EEC313FED2A40DEDB404EFD2A6E477
:1017D700FDEF25E0FFA2A7E4334FFFC2A4D2A40D7B
:1017E700EDB407EDD2A8C289EF543F24FB601A1469
:1017F700601A14601A24FB60191460191460191414
:101807006019240B70177F01227F02227F03227F3A
:0D18170004227F05227F06227F07227F0822
:0118240022A1
:101B9300AB07AA06ED25E0FFEC33FE74AE2FF5820A
:101BA30074033EF583E0FCA3E0FDEB25E0FFEA339D
:101BB300FE74042FF58274003EF583E04CFEA3E02F
:051BC3004DFF021C7142
:101CAB007F017E02121C717F007E05121C717F0367
:051CBB007E04021C7113
:101A9A008037E4FFFEFDFC90065CE0F8A3E0F9A3C2
:101AAA00E0FAA3E0FBD3120D704026000090065C1A
:101ABA00E0FCA3E0FDA3E0FEA3E024FFFFEE34FF79
:101ACA00FEED34FFFDEC34FFFC90065C120D9480B1
:021ADA00C12227
:08065900900646EEF0A3EFF05D
:1006610020A703020AFF900646E07002A3E0702271
:100671007B0AFAF9F8900648E0FCA3E0FDA3E0FE4E
:10068100A3E0FF1219D1E47B09FAF9F8120CFD027B
:100691001A9A900646E0FEA3E0FFD394E8EE648048
:1006A1009483401AEF944CEE648094845010A3E03C
:1006B100FCA3E0FDA3E0FEA3E0FFA302081F900658
:1006C10046E0FEA3E0FFD394F4EE648094814025DC
:1006D100EF9458EE64809482501BE47B02FAF9F89F
:1006E100A3E0FCA3E0FDA3E0FEA3E0FF1219D1907B
:1006F100064C02081F900646E0FEA3E0FFD394C813
:10070100EE648094804025EF942CEE6480948150B7
:100711001BE47B04FAF9F8A3E0FCA3E0FDA3E0FEEF
:10072100A3E0FF1219D190064C02081F900646E083
:10073100FEA3E0FFD394BCEE64809482402EEF943C
:1007410020EE648094835024E47B04FAF9F8A3E05A
:10075100FCA3E0FDA3E0FEA3E0FF1219D1E47B03BB
:10076100FAF9F8120CFD90064C02081F900646E0BB
:10077100FEA3E0FFD394B0EE64809484402DEF9407
:1007810014EE648094855023E47B04FAF9F8A3E025
:10079100FCA3E0FDA3E0FEA3E0FF1219D1E47B0579
:1007A100FAF9F8120CFD90064C8073900646E0FEB3
:1007B100A3E0FFD394DCEE64809485402DEF944058
:1007C100EE648094865023E47B02FAF9F8A3E0FCFE
:1007D100A3E0FDA3E0FEA3E0FF1219D1E47B03FA3D
:1007E100F9F8120CFD90064C8034900646E0FEA309
:1007F100E0FFD394D0EE648094874025EF9434EEEB
:1008010064809488501BE47F02FEFDFCA3E0F8A302
:10081100E0F9A3E0FAA3E0FB120CFD90064C120DE7
:1008210094900646E0FEA3E0FF7C007D64120C7903
:10083100EC60030209A5ED24F5B41B004003020995
:10084100A590085075F003A4C58325F0C5837302F4
:1008510008A10208AE0208BB0208C80208D50208B6
:10086100E20208EF0209A50209A50209A50208FC96
:1008710002090902091602092302092F02093B0292
:1008810009470209A50209A50209A502095302099E
:100891005F02096B02097702098302098F02099B32
:1008A100900658120DA04382CCCD0209A59006589E
:1008B100120DA04392D99A0209A5900658120DA0D3
:1008C10043A4CCCD0209A5900658120DA043AE99C0
:1008D1009A0209A5900658120DA043C44CCD0209F5
:1008E100A5900658120DA043DC00000209A5900650
:1008F10058120DA043F6F3330209A5900658120DC4
:10090100A04402D3330209A5900658120DA0441247
:10091100D3330209A5900658120DA04424D3330203
:1009210009A5900658120DA0442EA00080769006CD
:1009310058120DA044440000806A900658120DA080
:10094100445C0000805E900658120DA04476F3339B
:100951008052900658120DA04482B0008046900645
:1009610058120DA04492D666803A900658120DA0F6
:1009710044A4D000802E900658120DA044AE9CCD08
:100981008022900658120DA044C4000080169006E3
:1009910058120DA044DC0000800A900658120DA0E8
:1009A10044F6F000900658E0F8A3E0F9A3E0FAA3BA
:1009B100E0FB7F007E507DC37C47120B03E4FBFA12
:1009C100F97840120B03120BA0900650120D94906F
:1009D100064CE0FCA3E0FDA3E0FEA3E0FF9006547B
:1009E100120D94E47F02FEFDFC90064CE0F8A3E0BA
:1009F100F9A3E0FAA3E0FB120CFD900650E0F8A386
:100A0100E0F9A3E0FAA3E0FB1219D1804AE4FFFE6A
:100A1100FDFC90064CE0F8A3E0F9A3E0FAA3E0FBAB
:100A2100D3120D5A4039B2C5900650E0FCA3E0FD47
:100A3100A3E0FEA3E0FF121A9A90064CE0FCA3E0AB
:100A4100FDA3E0FEA3E0FFEF24FFFFEE34FFFEED88
:100A510034FFFDEC34FFFC90064C120D9480AE90F7
:100A61000646E0FAA3E0FB7C007D64FFAE02120CB7
:100A7100797E007F0ACFCDCFCECCCE120C79AC06D9
:100A8100AD07C004C0057C007D0AAF03AE02120CA5
:100A910079AE04AF05D005D004121478900646E073
:100AA100FAA3E0FB7C007D64FFAE02120C797E00AC
:100AB1007F0ACFCDCFCECCCE120C79AC06AD07C01C
:100AC10004C0057C007D0AAF03AE02120C79AE04AE
:100AD100AF05C006C007E47B0AFAF9F8900654E0B6
:100AE100FCA3E0FDA3E0FEA3E0FF1219D190066094
:0E0AF100120D94D007D006D005D0041213AE1B
:010AFF0022D4
:0F116A0090063BEBF0A3EAF0A3E9F0A3120D947B
:10117900E4900644F0A3F0900642E0FEA3E0FFA34A
:10118900E0FCA3E0FDC39FEE6480F8EC6480984026
:10119900030212D2ED25E0FFEC33FE90063BE0FBA3
:1011A900A3E0FAA3E0F98F828E83120CC5FFAEF09B
:1011B900C006C00790063EE0FCA3E0FDA3E0FEA345
:1011C900E0FF900648120D94D007D00612065990F8
:1011D9000645E025E0FF900644E033FE90063BE03B
:1011E900FBA3E0FAA3E0F98F828E83120CC5FFAE50
:1011F900F07C037DE8120C79AC06AD077F047E0014
:10120900121B93900645E025E0FF900644E033FE6B
:1012190090063BE0FBA3E0FAA3E0F98F828E8312EC
:101229000CC5FFAEF07C037DE8120C797E007F646B
:10123900CFCDCFCECCCE120C79AC06AD077F057ED3
:1012490000121B93900645E025E0FF900644E03329
:10125900FE90063BE0FBA3E0FAA3E0F98F828E83C0
:10126900120CC5FFAEF07C007D64120C797E007F04
:101279000ACFCDCFCECCCE120C79AC06AD077F0606
:101289007E00121B93900645E025E0FF900644E09E
:1012990033FE90063BE0FBA3E0FAA3E0F98F828ED0
:1012A90083120CC5FFAEF07C007D0A120C797F0712
:1012B9007E00121B93900645E004F0600302118042
:0912C900900644E004F0021180DB
:0112D20022F9
:1015BD00E490063AF0121825121BF5121CAB121707
:1015CD00B790063AEFF024FE6025146045240270B2
:1015DD00ED7B017A007918900000E0FCA3E0FDA3FB
:1015ED00E0FEA3E0FF900642E4F0A37495801D7B1E
:1015FD00017A017942900000E0FCA3E0FDA3E0FE3A
:10160D00A3E0FF9006427401F0A37436F012116A44
:10161D0080AC7B017A0379C2900000E0FCA3E0FD71
:10162D00A3E0FEA3E0FF9006427401F0A37433F033
:05163D0012116A808912
:100B0000020C16EC5D046005E859047003020C0C3D
:100B1000120BD7580460F6EC4860F2EC7004FDFE4E
:100B2000FF22C860DB2481C85009C39860025006C8
:100B3000020C139850CAF582E9294B4A7005AB8222
:100B4000020C0275F0007C1A7880C3EF9BEE9AEDE0
:100B500099400DC3EF9BFFEE9AFEED99FDE842F040
:100B6000DC23ACF0D0E0FFD0E0FED0E0FDAB822093
:100B7000E7101BEB60BAEC2CFCEF33FFEE33FEED1D
:100B800033FD020BEEE803F830E705C0F075F00026
:100B9000EF2FFFEE33FEED33FD40B830E7C280AA01
:100BA000EDD2E7CD33EC3392D524814006E4FFFE4D
:100BB000FDFC22FCE4CFCECDCC24E0501174FF80AC
:100BC000EDC3CC13CCCD13CDCE13CECF13CF047049
:070BD000F030D5DE020D4CF0
:100BD700E9D2E7C933E833F892D5EDD2E7CD33EC64
:070BE70033FC5002B2D522DD
:100BEE00EC30E7100FBF000C0EBE00080DBD000468
:100BFE000BEB6014A2D5EB13FCED92E7FD2274FF14
:100C0E00FCFDFEFF22E480F8A2D574FF13FC7D806C
:030C1E00E480EF80
:10153D000215BDE493A3F8E493A34003F68001F2F2
:10154D0008DFF48029E493A3F85407240CC8C333AF
:10155D00C4540F4420C8834004F456800146F6DF7E
:10156D00E4800B0102040810204080900003E47E0B
:10157D00019360BCA3FF543F30E509541FFEE49373
:10158D00A360010ECF54C025E060A840B8E493A33A
:10159D00FAE493A3F8E493A3C8C582C8CAC583CA65
:1015AD00F0A3C8C582C8CAC583CADFE9DEE780BE1D
:0106580000A1
:100C2100BB010689828A83E0225002E722BBFE02D1
:090C3100E32289828A83E4932204
:100C3A00BB010CE58229F582E5833AF583E022506F
:100C4A0006E92582F8E622BBFE06E92582F8E222B9
:0D0C5A00E58229F582E5833AF583E49322D3
:100C6700EF8DF0A4A8F0CF8CF0A428CE8DF0A42EA1
:020C7700FE225B
:100C7900C2D5EC30E709B2D5E4C39DFDE49CFCEE96
:100C890030E715B2D5E4C39FFFE49EFE120DD1C330
:100C9900E49DFDE49CFC8003120DD130D507C3E42B
:060CA9009FFFE49EFE2205
:100CAF00C5F0F8A3E028F0C5F0F8E58215827002D0
:060CBF001583E038F0226D
:100CC500BB0110E58229F582E5833AF583E0F5F06D
:100CD500A3E0225009E92582F886F008E622BBFE4A
:100CE5000AE92582F8E2F5F008E222E5832AF58390
:080CF500E993F5F0A3E9932255
:100CFD00E88FF0A4CC8BF0A42CFCE98EF0A42CFC96
:100D0D008AF0EDA42CFCEA8EF0A4CDA8F08BF0A413
:100D1D002DCC3825F0FDE98FF0A42CCD35F0FCEB72
:100D2D008EF0A4FEA9F0EB8FF0A4CFC5F02ECD3937
:0F0D3D00FEE43CFCEAA42DCE35F0FDE43CFC22A4
:1019D100C2D5E830E70FB2D5E4C39BFBE49AFAE441
:1019E10099F9E498F8EC30E717B2D5121A07120EFC
:1019F10062E4C39BFBE49AFAE499F9E498F8800362
:101A0100120E6230D50DE4C39FFFE49EFEE49DFDFE
:041A1100E49CFC2233
:0E0D4C00C3E49FFFE49EFEE49DFDE49CFC22B8
:100D5A00EB9FF5F0EA9E42F0E99D42F0EC6480C810
:060D6A0064809845F022B0
:100D7000EB9FF5F0EA9E42F0E99D42F0E89C45F0D9
:010D80002250
:100D8100E8600FECC313FCED13FDEE13FEEF13FF50
:030D9100D8F12274
:0C0D9400ECF0A3EDF0A3EEF0A3EFF022D2
:100DA000A8828583F0D083D082120DB7120DB712BE
:100DB0000DB7120DB7E473E493A3C583C5F0C583E3
:100DC000C8C582C8F0A3C583C5F0C583C8C582C89D
:010DD0002200
:100DD100BC000BBE0029EF8DF084FFADF022E4CC06
:100DE100F875F008EF2FFFEE33FEEC33FCEE9DECCF
:100DF100984005FCEE9DFE0FD5F0E9E4CEFD22ED15
:100E0100F8F5F0EE8420D21CFEADF075F008EF2F5E
:100E1100FFED33FD4007985006D5F0F222C398FD4F
:050E21000FD5F0EA22EC
:100E260075F008758200EF2FFFEE33FECD33CDCC83
:100E360033CCC58233C5829BED9AEC99E582984006
:100E46000CF582EE9BFEED9AFDEC99FC0FD5F0D6E3
:100E5600E4CEFBE4CDFAE4CCF9A88222B800C1B90D
:100E66000059BA002DEC8BF084CFCECDFCE5F0CB4B
:100E7600F97818EF2FFFEE33FEED33FDEC33FCEB84
:100E860033FB10D703994004EB99FB0FD8E5E4F93F
:100E9600FA227818EF2FFFEE33FEED33FDEC33FC2C
:100EA600C933C910D7059BE99A4007EC9BFCE99A20
:100EB600F90FD8E0E4C9FAE4CCFB2275F010EF2F65
:100EC600FFEE33FEED33FDCC33CCC833C810D70765
:100ED6009BEC9AE899400AED9BFDEC9AFCE899F8A0
:0E0EE6000FD5F0DAE4CDFBE4CCFAE4C8F92233
:00000001FF
